:100000000C9446000C9465000C9465000C946500FB
:100010000C9465000C9465000C9465000C946500CC
:100020000C9465000C9465000C9465000C946500BC
:100030000C9465000C9465000C9465000C946500AC
:100040000C9465000C9465000C9465000C9465009C
:100050000C9465000C9465000C9465000C9465008C
:100060000C9465000C9465000C9465000C9465007C
:100070000C9465000C9465000C9465000C9465006C
:100080000C9465000C9465000C94650011241FBE4F
:10009000CFEFD0E1DEBFCDBF11E0A0E0B1E0E8E5F9
:1000A000F1E000E00BBF02C007900D92A030B10755
:1000B000D9F711E0A0E0B1E001C01D92A030B10776
:1000C000E1F70E9472000C94AB000C94000086B122
:1000D000876086B987B1806687B986B1806A86B93C
:1000E00008950895CFEFD0E1DEBFCDBF8FEF87BB7E
:1000F0001092610018BA0E946700369A21E030E041
:10010000C0E4DFE1E0E0F0E085B199276FE170E065
:100110000E949700A90102C0440F551F6A95E2F79B
:10012000CA01815088BBCE010197F1F7EDCFAA1B20
:10013000BB1B51E107C0AA1FBB1FA617B70710F0D2
:10014000A61BB70B881F991F5A95A9F78095909504
:08015000BC01CD010895FFCFB1
:00000001FF
